{"abi":[{"type":"constructor","inputs":[],"stateMutability":"nonpayable"},{"type":"function","name":"addBootnodes","inputs":[{"name":"newBootnodes","type":"string[]","internalType":"string[]"}],"outputs":[],"stateMutability":"nonpayable"},{"type":"function","name":"bootnodeManager","inputs":[],"outputs":[{"name":"","type":"address","internalType":"address"}],"stateMutability":"view"},{"type":"function","name":"clearBootnodes","inputs":[],"outputs":[],"stateMutability":"nonpayable"},{"type":"function","name":"currentRound","inputs":[],"outputs":[{"name":"","type":"uint256","internalType":"uint256"}],"stateMutability":"view"},{"type":"function","name":"currentStage","inputs":[],"outputs":[{"name":"","type":"uint256","internalType":"uint256"}],"stateMutability":"view"},{"type":"function","name":"getBootnodes","inputs":[],"outputs":[{"name":"","type":"string[]","internalType":"string[]"}],"stateMutability":"view"},{"type":"function","name":"getBootnodesCount","inputs":[],"outputs":[{"name":"","type":"uint256","internalType":"uint256"}],"stateMutability":"view"},{"type":"function","name":"getEoa","inputs":[{"name":"peerIds","type":"string[]","internalType":"string[]"}],"outputs":[{"name":"","type":"address[]","internalType":"address[]"}],"stateMutability":"view"},{"type":"function","name":"getPeerId","inputs":[{"name":"eoas","type":"address[]","internalType":"address[]"}],"outputs":[{"name":"","type":"string[]","internalType":"string[]"}],"stateMutability":"view"},{"type":"function","name":"getPeerVoteCount","inputs":[{"name":"roundNumber","type":"uint256","internalType":"uint256"},{"name":"peerId","type":"string","internalType":"string"}],"outputs":[{"name":"","type":"uint256","internalType":"uint256"}],"stateMutability":"view"},{"type":"function","name":"getRoundWinners","inputs":[{"name":"roundNumber","type":"uint256","internalType":"uint256"}],"outputs":[{"name":"","type":"string[]","internalType":"string[]"}],"stateMutability":"view"},{"type":"function","name":"getTotalWins","inputs":[{"name":"peerId","type":"string","internalType":"string"}],"outputs":[{"name":"","type":"uint256","internalType":"uint256"}],"stateMutability":"view"},{"type":"function","name":"getVoterVoteCount","inputs":[{"name":"voter","type":"address","internalType":"address"}],"outputs":[{"name":"","type":"uint256","internalType":"uint256"}],"stateMutability":"view"},{"type":"function","name":"getVoterVotes","inputs":[{"name":"roundNumber","type":"uint256","internalType":"uint256"},{"name":"voter","type":"address","internalType":"address"}],"outputs":[{"name":"","type":"string[]","internalType":"string[]"}],"stateMutability":"view"},{"type":"function","name":"owner","inputs":[],"outputs":[{"name":"","type":"address","internalType":"address"}],"stateMutability":"view"},{"type":"function","name":"registerPeer","inputs":[{"name":"peerId","type":"string","internalType":"string"}],"outputs":[],"stateMutability":"nonpayable"},{"type":"function","name":"removeBootnode","inputs":[{"name":"index","type":"uint256","internalType":"uint256"}],"outputs":[],"stateMutability":"nonpayable"},{"type":"function","name":"renounceOwnership","inputs":[],"outputs":[],"stateMutability":"nonpayable"},{"type":"function","name":"setBootnodeManager","inputs":[{"name":"newManager","type":"address","internalType":"address"}],"outputs":[],"stateMutability":"nonpayable"},{"type":"function","name":"setStageCount","inputs":[{"name":"stageCount_","type":"uint256","internalType":"uint256"}],"outputs":[],"stateMutability":"nonpayable"},{"type":"function","name":"setStageUpdater","inputs":[{"name":"newUpdater","type":"address","internalType":"address"}],"outputs":[],"stateMutability":"nonpayable"},{"type":"function","name":"stageCount","inputs":[],"outputs":[{"name":"","type":"uint256","internalType":"uint256"}],"stateMutability":"view"},{"type":"function","name":"stageUpdater","inputs":[],"outputs":[{"name":"","type":"address","internalType":"address"}],"stateMutability":"view"},{"type":"function","name":"submitWinners","inputs":[{"name":"roundNumber","type":"uint256","internalType":"uint256"},{"name":"winners","type":"string[]","internalType":"string[]"}],"outputs":[],"stateMutability":"nonpayable"},{"type":"function","name":"transferOwnership","inputs":[{"name":"newOwner","type":"address","internalType":"address"}],"outputs":[],"stateMutability":"nonpayable"},{"type":"function","name":"uniqueVotedPeers","inputs":[],"outputs":[{"name":"","type":"uint256","internalType":"uint256"}],"stateMutability":"view"},{"type":"function","name":"uniqueVoters","inputs":[],"outputs":[{"name":"","type":"uint256","internalType":"uint256"}],"stateMutability":"view"},{"type":"function","name":"updateStageAndRound","inputs":[],"outputs":[{"name":"","type":"uint256","internalType":"uint256"},{"name":"","type":"uint256","internalType":"uint256"}],"stateMutability":"nonpayable"},{"type":"function","name":"voterLeaderboard","inputs":[{"name":"start","type":"uint256","internalType":"uint256"},{"name":"end","type":"uint256","internalType":"uint256"}],"outputs":[{"name":"voters","type":"address[]","internalType":"address[]"},{"name":"voteCounts","type":"uint256[]","internalType":"uint256[]"}],"stateMutability":"view"},{"type":"function","name":"winnerLeaderboard","inputs":[{"name":"start","type":"uint256","internalType":"uint256"},{"name":"end","type":"uint256","internalType":"uint256"}],"outputs":[{"name":"peerIds","type":"string[]","internalType":"string[]"},{"name":"wins","type":"uint256[]","internalType":"uint256[]"}],"stateMutability":"view"},{"type":"event","name":"AllBootnodesCleared","inputs":[{"name":"manager","type":"address","indexed":true,"internalType":"address"}],"anonymous":false},{"type":"event","name":"BootnodeManagerUpdated","inputs":[{"name":"previousManager","type":"address","indexed":true,"internalType":"address"},{"name":"newManager","type":"address","indexed":true,"internalType":"address"}],"anonymous":false},{"type":"event","name":"BootnodeRemoved","inputs":[{"name":"manager","type":"address","indexed":true,"internalType":"address"},{"name":"index","type":"uint256","indexed":false,"internalType":"uint256"}],"anonymous":false},{"type":"event","name":"BootnodesAdded","inputs":[{"name":"manager","type":"address","indexed":true,"internalType":"address"},{"name":"count","type":"uint256","indexed":false,"internalType":"uint256"}],"anonymous":false},{"type":"event","name":"OwnershipTransferred","inputs":[{"name":"previousOwner","type":"address","indexed":true,"internalType":"address"},{"name":"newOwner","type":"address","indexed":true,"internalType":"address"}],"anonymous":false},{"type":"event","name":"PeerRegistered","inputs":[{"name":"eoa","type":"address","indexed":true,"internalType":"address"},{"name":"peerId","type":"string","indexed":false,"internalType":"string"}],"anonymous":false},{"type":"event","name":"RoundAdvanced","inputs":[{"name":"newRoundNumber","type":"uint256","indexed":true,"internalType":"uint256"}],"anonymous":false},{"type":"event","name":"StageAdvanced","inputs":[{"name":"roundNumber","type":"uint256","indexed":true,"internalType":"uint256"},{"name":"newStage","type":"uint256","indexed":false,"internalType":"uint256"}],"anonymous":false},{"type":"event","name":"StageUpdaterUpdated","inputs":[{"name":"previousUpdater","type":"address","indexed":true,"internalType":"address"},{"name":"newUpdater","type":"address","indexed":true,"internalType":"address"}],"anonymous":false},{"type":"event","name":"WinnerSubmitted","inputs":[{"name":"voter","type":"address","indexed":true,"internalType":"address"},{"name":"roundNumber","type":"uint256","indexed":true,"internalType":"uint256"},{"name":"winners","type":"string[]","indexed":false,"internalType":"string[]"}],"anonymous":false},{"type":"error","name":"InvalidBootnodeIndex","inputs":[]},{"type":"error","name":"InvalidPeerId","inputs":[]},{"type":"error","name":"InvalidRoundNumber","inputs":[]},{"type":"error","name":"OnlyBootnodeManager","inputs":[]},{"type":"error","name":"OnlyStageUpdater","inputs":[]},{"type":"error","name":"OwnableInvalidOwner","inputs":[{"name":"owner","type":"address","internalType":"address"}]},{"type":"error","name":"OwnableUnauthorizedAccount","inputs":[{"name":"account","type":"address","internalType":"address"}]},{"type":"error","name":"PeerIdAlreadyRegistered","inputs":[]},{"type":"error","name":"StageOutOfBounds","inputs":[]},{"type":"error","name":"WinnerAlreadyVoted","inputs":[]}],"bytecode":{"object":"0x60806040525f6001555f6002555f60035534801561001b575f5ffd5b50338061004257604051631e4fbdf760e01b81525f60048201526024015b60405180910390fd5b61004b81610063565b50610055336100b2565b61005e3361010b565b610192565b5f80546001600160a01b038381166001600160a01b0319831681178455604051919092169283917f8be0079c531659141344cd1fd0a4f28419497f9722a3daafe3b4186f6b6457e09190a35050565b6100ba610164565b600480546001600160a01b038381166001600160a01b0319831681179093556040519116919082907f09e615c77702e23c73f110c4580fafe68004fd7350b11cbb76bfe12750ba17d1905f90a35050565b610113610164565b601180546001600160a01b038381166001600160a01b0319831681179093556040519116919082907ff543609e1a7b4334f4922d083dc944d2c328ea68698f5fc48c608fa164f88686905f90a35050565b5f546001600160a01b031633146101905760405163118cdaa760e01b8152336004820152602401610039565b565b612e438061019f5f395ff3fe608060405234801561000f575f5ffd5b50600436106101d1575f3560e01c806396bac35a116100fe578063d542dda81161009e578063ef87ed231161006e578063ef87ed2314610418578063f2fde38b1461042b578063f33261ac1461043e578063f39dd4e514610446575f5ffd5b8063d542dda8146103c2578063d90d8573146103d5578063e28b0586146103e8578063edcb546814610405575f5ffd5b8063b894a469116100d9578063b894a46914610354578063c1b664de14610367578063c7ee32a71461037a578063ccf82bb11461038d575f5ffd5b806396bac35a1461030e578063a49e07d61461032e578063b0c774041461034c575f5ffd5b806348495bdb116101745780636370ae4f116101445780636370ae4f146102b8578063715018a6146102c05780638a19c8bc146102c85780638da5cb5b146102d0575f5ffd5b806348495bdb146102825780634f4026c31461028a5780634f52ca361461029d5780635bf5d54c146102b0575f5ffd5b80632f4be652116101af5780632f4be6521461023c57806333e7fb451461025d5780634179a7591461027257806342d2c6a01461027a575f5ffd5b8063099c4002146101d557806318a6fd88146101fb5780632e8814711461021c575b5f5ffd5b6101e86101e336600461228c565b610464565b6040519081526020015b60405180910390f35b61020e6102093660046122cb565b61048f565b6040516101f292919061236b565b61022f61022a366004612398565b6106f5565b6040516101f29190612465565b61024f61024a3660046122cb565b6107da565b6040516101f292919061247e565b61027061026b36600461228c565b610a63565b005b610270610c13565b600f546101e8565b6012546101e8565b6101e8610298366004612490565b610c9b565b6102706102ab366004612398565b610cd0565b6002546101e8565b61022f610e27565b610270610efb565b6001546101e8565b5f5473ffffffffffffffffffffffffffffffffffffffff165b60405173ffffffffffffffffffffffffffffffffffffffff90911681526020016101f2565b61032161031c366004612519565b610f0e565b6040516101f2919061254c565b60115473ffffffffffffffffffffffffffffffffffffffff166102e9565b600e546101e8565b61022f610362366004612519565b611006565b610270610375366004612398565b611171565b6102706103883660046125da565b61117e565b6101e861039b366004612754565b73ffffffffffffffffffffffffffffffffffffffff165f908152600c602052604090205490565b6102706103d0366004612754565b611530565b6102706103e3366004612519565b6115ae565b6103f061168b565b604080519283526020830191909152016101f2565b61022f61041336600461276d565b61179c565b610270610426366004612754565b61189b565b610270610439366004612754565b611919565b6003546101e8565b60045473ffffffffffffffffffffffffffffffffffffffff166102e9565b5f60088383604051610477929190612797565b90815260200160405180910390205490505b92915050565b60608082841115610527576040517f08c379a000000000000000000000000000000000000000000000000000000000815260206004820152603360248201527f537461727420696e646578206d757374206265206c657373207468616e206f7260448201527f20657175616c20746f20656e6420696e6465780000000000000000000000000060648201526084015b60405180910390fd5b600d5483111561053757600d5492505b600d5484111561054757600d5493505b5f61055285856127d3565b90508067ffffffffffffffff81111561056d5761056d61255e565b604051908082528060200260200182016040528015610596578160200160208202803683370190505b5092508067ffffffffffffffff8111156105b2576105b261255e565b6040519080825280602002602001820160405280156105db578160200160208202803683370190505b509150845b848110156106eb575f6105f387836127d3565b9050600d8281548110610608576106086127e6565b905f5260205f20015f9054906101000a900473ffffffffffffffffffffffffffffffffffffffff16858281518110610642576106426127e6565b602002602001019073ffffffffffffffffffffffffffffffffffffffff16908173ffffffffffffffffffffffffffffffffffffffff1681525050600c5f600d8481548110610692576106926127e6565b5f91825260208083209091015473ffffffffffffffffffffffffffffffffffffffff16835282019290925260400190205484518590839081106106d7576106d76127e6565b6020908102919091010152506001016105e0565b50505b9250929050565b606060075f8381526020019081526020015f20805480602002602001604051908101604052809291908181526020015f905b828210156107cf578382905f5260205f2001805461074490612813565b80601f016020809104026020016040519081016040528092919081815260200182805461077090612813565b80156107bb5780601f10610792576101008083540402835291602001916107bb565b820191905f5260205f20905b81548152906001019060200180831161079e57829003601f168201915b505050505081526020019060010190610727565b505050509050919050565b6060808284111561086d576040517f08c379a000000000000000000000000000000000000000000000000000000000815260206004820152603360248201527f537461727420696e646578206d757374206265206c657373207468616e206f7260448201527f20657175616c20746f20656e6420696e64657800000000000000000000000000606482015260840161051e565b60095483111561087d5760095492505b60095484111561088d5760095493505b5f61089885856127d3565b90508067ffffffffffffffff8111156108b3576108b361255e565b6040519080825280602002602001820160405280156108e657816020015b60608152602001906001900390816108d15790505b5092508067ffffffffffffffff8111156109025761090261255e565b60405190808252806020026020018201604052801561092b578160200160208202803683370190505b509150845b848110156106eb575f61094387836127d3565b905060098281548110610958576109586127e6565b905f5260205f2001805461096b90612813565b80601f016020809104026020016040519081016040528092919081815260200182805461099790612813565b80156109e25780601f106109b9576101008083540402835291602001916109e2565b820191905f5260205f20905b8154815290600101906020018083116109c557829003601f168201915b50505050508582815181106109f9576109f96127e6565b6020026020010181905250600860098381548110610a1957610a196127e6565b905f5260205f2001604051610a2e91906128f0565b908152602001604051809103902054848281518110610a4f57610a4f6127e6565b602090810291909101015250600101610930565b60405133905f90600690610a7a9086908690612797565b9081526040519081900360200190205473ffffffffffffffffffffffffffffffffffffffff1614610ad7576040517f723dc67500000000000000000000000000000000000000000000000000000000815260040160405180910390fd5b73ffffffffffffffffffffffffffffffffffffffff81165f9081526005602052604081208054610b0690612813565b90501115610b40576040517f723dc67500000000000000000000000000000000000000000000000000000000815260040160405180910390fd5b73ffffffffffffffffffffffffffffffffffffffff81165f908152600560205260409020610b6f838583612946565b508060068484604051610b83929190612797565b908152604051908190036020018120805473ffffffffffffffffffffffffffffffffffffffff9384167fffffffffffffffffffffffff0000000000000000000000000000000000000000909116179055908216907f13ff856599d1c93e876f34e507293c64647043cc0171caa42d35f8015c56455c90610c069086908690612a5c565b60405180910390a2505050565b60115473ffffffffffffffffffffffffffffffffffffffff163314610c64576040517f014c1cb500000000000000000000000000000000000000000000000000000000815260040160405180910390fd5b610c6f60125f612178565b60405133907f283fdacb5de1271ad7865bfc841f02966aea2bb4d0211745186c12b16a3ce1b8905f90a2565b5f838152600b60205260408082209051610cb89085908590612797565b90815260200160405180910390205490509392505050565b60115473ffffffffffffffffffffffffffffffffffffffff163314610d21576040517f014c1cb500000000000000000000000000000000000000000000000000000000815260040160405180910390fd5b6012548110610d5c576040517f7d8aaf0e00000000000000000000000000000000000000000000000000000000815260040160405180910390fd5b601254610d6b906001906127d3565b811015610dc35760128054610d82906001906127d3565b81548110610d9257610d926127e6565b905f5260205f200160128281548110610dad57610dad6127e6565b905f5260205f20019081610dc19190612aa8565b505b6012805480610dd457610dd4612bdc565b600190038181905f5260205f20015f610ded9190612193565b905560405181815233907f82d82daba96d4df28e6cb421b83d49e88d4e4a448a9e768311afba927487f20c9060200160405180910390a250565b60606012805480602002602001604051908101604052809291908181526020015f905b82821015610ef2578382905f5260205f20018054610e6790612813565b80601f0160208091040260200160405190810160405280929190818152602001828054610e9390612813565b8015610ede5780601f10610eb557610100808354040283529160200191610ede565b820191905f5260205f20905b815481529060010190602001808311610ec157829003601f168201915b505050505081526020019060010190610e4a565b50505050905090565b610f0361197c565b610f0c5f6119ce565b565b60605f8267ffffffffffffffff811115610f2a57610f2a61255e565b604051908082528060200260200182016040528015610f53578160200160208202803683370190505b5090505f5b83811015610ffe576006858583818110610f7457610f746127e6565b9050602002810190610f869190612c09565b604051610f94929190612797565b90815260405190819003602001902054825173ffffffffffffffffffffffffffffffffffffffff90911690839083908110610fd157610fd16127e6565b73ffffffffffffffffffffffffffffffffffffffff90921660209283029190910190910152600101610f58565b509392505050565b60605f8267ffffffffffffffff8111156110225761102261255e565b60405190808252806020026020018201604052801561105557816020015b60608152602001906001900390816110405790505b5090505f5b83811015610ffe5760055f868684818110611077576110776127e6565b905060200201602081019061108c9190612754565b73ffffffffffffffffffffffffffffffffffffffff1673ffffffffffffffffffffffffffffffffffffffff1681526020019081526020015f2080546110d090612813565b80601f01602080910402602001604051908101604052809291908181526020018280546110fc90612813565b80156111475780601f1061111e57610100808354040283529160200191611147565b820191905f5260205f20905b81548152906001019060200180831161112a57829003601f168201915b505050505082828151811061115e5761115e6127e6565b602090810291909101015260010161105a565b61117961197c565b600355565b6001548211156111ba576040517f4197f6ea00000000000000000000000000000000000000000000000000000000815260040160405180910390fd5b5f828152600a602090815260408083203384529091529020541561120a576040517f3d51d82700000000000000000000000000000000000000000000000000000000815260040160405180910390fd5b335f908152600c6020526040812054900361123457600e8054905f61122e83612c6a565b91905055505b5f5b81518110156112e4575f73ffffffffffffffffffffffffffffffffffffffff16600683838151811061126a5761126a6127e6565b602002602001015160405161127f9190612ca1565b9081526040519081900360200190205473ffffffffffffffffffffffffffffffffffffffff16036112dc576040517ffd8b66e900000000000000000000000000000000000000000000000000000000815260040160405180910390fd5b600101611236565b505f828152600a602090815260408083203384528252909120825161130b928401906121ca565b505f5b8151811015611434575f838152600b602052604090208251839083908110611338576113386127e6565b602002602001015160405161134d9190612ca1565b9081526040519081900360200190208054905f61136983612c6a565b91905055506010828281518110611382576113826127e6565b60200260200101516040516113979190612ca1565b9081526040519081900360200190205460ff1661142c57600160108383815181106113c4576113c46127e6565b60200260200101516040516113d99190612ca1565b90815260405190819003602001902080549115157fffffffffffffffffffffffffffffffffffffffffffffffffffffffffffffff00909216919091179055600f8054905f61142683612c6a565b91905055505b60010161130e565b50335f908152600c6020526040812080549161144f83612c6a565b919050555061145d33611a42565b5f5b81518110156114dc57600882828151811061147c5761147c6127e6565b60200260200101516040516114919190612ca1565b9081526040519081900360200190208054905f6114ad83612c6a565b91905055506114d48282815181106114c7576114c76127e6565b6020026020010151611e41565b60010161145f565b50813373ffffffffffffffffffffffffffffffffffffffff167fa480108ef7824d47aa76cf1eb6e5b66a5d9ab1713b2a25caf8552eb49748a0c8836040516115249190612465565b60405180910390a35050565b61153861197c565b6004805473ffffffffffffffffffffffffffffffffffffffff8381167fffffffffffffffffffffffff0000000000000000000000000000000000000000831681179093556040519116919082907f09e615c77702e23c73f110c4580fafe68004fd7350b11cbb76bfe12750ba17d1905f90a35050565b60115473ffffffffffffffffffffffffffffffffffffffff1633146115ff576040517f014c1cb500000000000000000000000000000000000000000000000000000000815260040160405180910390fd5b805f5b8181101561165857601284848381811061161e5761161e6127e6565b90506020028101906116309190612c09565b82546001810184555f93845260209093209092019161164f9183612946565b50600101611602565b5060405181815233907fa9a386aeb1871393ce021c503e25c80ac4d26812ec75539a703f472b818b5c6c90602001610c06565b6004545f90819073ffffffffffffffffffffffffffffffffffffffff1633146116e0576040517f0edbd16c00000000000000000000000000000000000000000000000000000000815260040160405180910390fd5b6003546002546116f1906001612cb7565b106117405760018054905f61170583612c6a565b90915550505f600281905560015460405190917f023811fd72d20a3eb734785eed809172b5c9c24019d493039c70ef9c276d4d9791a2611752565b60025461174e906001612cb7565b6002555b6001547f373b83833fa259ee8a1c96ccea2cb633a5b88dd292e40ff9f8c103d8ce10c57760025460405161178891815260200190565b60405180910390a250506001546002549091565b5f828152600a6020908152604080832073ffffffffffffffffffffffffffffffffffffffff851684528252808320805482518185028101850190935280835260609492939192909184015b8282101561188f578382905f5260205f2001805461180490612813565b80601f016020809104026020016040519081016040528092919081815260200182805461183090612813565b801561187b5780601f106118525761010080835404028352916020019161187b565b820191905f5260205f20905b81548152906001019060200180831161185e57829003601f168201915b5050505050815260200190600101906117e7565b50505050905092915050565b6118a361197c565b6011805473ffffffffffffffffffffffffffffffffffffffff8381167fffffffffffffffffffffffff0000000000000000000000000000000000000000831681179093556040519116919082907ff543609e1a7b4334f4922d083dc944d2c328ea68698f5fc48c608fa164f88686905f90a35050565b61192161197c565b73ffffffffffffffffffffffffffffffffffffffff8116611970576040517f1e4fbdf70000000000000000000000000000000000000000000000000000000081525f600482015260240161051e565b611979816119ce565b50565b5f5473ffffffffffffffffffffffffffffffffffffffff163314610f0c576040517f118cdaa700000000000000000000000000000000000000000000000000000000815233600482015260240161051e565b5f805473ffffffffffffffffffffffffffffffffffffffff8381167fffffffffffffffffffffffff0000000000000000000000000000000000000000831681178455604051919092169283917f8be0079c531659141344cd1fd0a4f28419497f9722a3daafe3b4186f6b6457e09190a35050565b73ffffffffffffffffffffffffffffffffffffffff81165f908152600c6020526040812054907fffffffffffffffffffffffffffffffffffffffffffffffffffffffffffffffff905b600d54811015611af5578373ffffffffffffffffffffffffffffffffffffffff16600d8281548110611abf57611abf6127e6565b5f9182526020909120015473ffffffffffffffffffffffffffffffffffffffff1603611aed57809150611af5565b600101611a8b565b507fffffffffffffffffffffffffffffffffffffffffffffffffffffffffffffffff8103611c8f57600d5460641115611bac57600d8054600180820183555f8390527fd7b6990105719101dabeb77144f2a3385c8033acd3af97e9423a695e81ad1eb590910180547fffffffffffffffffffffffff00000000000000000000000000000000000000001673ffffffffffffffffffffffffffffffffffffffff87161790559054611ba591906127d3565b9050611c8f565b81600c5f600d6001600d80549050611bc491906127d3565b81548110611bd457611bd46127e6565b5f91825260208083209091015473ffffffffffffffffffffffffffffffffffffffff1683528201929092526040019020541015611c8a57600d8054849190611c1e906001906127d3565b81548110611c2e57611c2e6127e6565b5f91825260209091200180547fffffffffffffffffffffffff00000000000000000000000000000000000000001673ffffffffffffffffffffffffffffffffffffffff92909216919091179055600d54611ba5906001906127d3565b505050565b5f81118015611ced575081600c5f600d611caa6001866127d3565b81548110611cba57611cba6127e6565b5f91825260208083209091015473ffffffffffffffffffffffffffffffffffffffff168352820192909252604001902054105b15611c8a575f600d611d006001846127d3565b81548110611d1057611d106127e6565b5f91825260209091200154600d805473ffffffffffffffffffffffffffffffffffffffff90921692509083908110611d4a57611d4a6127e6565b5f9182526020909120015473ffffffffffffffffffffffffffffffffffffffff16600d611d786001856127d3565b81548110611d8857611d886127e6565b905f5260205f20015f6101000a81548173ffffffffffffffffffffffffffffffffffffffff021916908373ffffffffffffffffffffffffffffffffffffffff16021790555080600d8381548110611de157611de16127e6565b5f91825260209091200180547fffffffffffffffffffffffff00000000000000000000000000000000000000001673ffffffffffffffffffffffffffffffffffffffff9290921691909117905581611e3881612cca565b92505050611c8f565b5f600882604051611e529190612ca1565b9081526040519081900360200190205490507fffffffffffffffffffffffffffffffffffffffffffffffffffffffffffffffff5f5b600954811015611ede57838051906020012060098281548110611eac57611eac6127e6565b905f5260205f2001604051611ec191906128f0565b604051809103902003611ed657809150611ede565b600101611e87565b507fffffffffffffffffffffffffffffffffffffffffffffffffffffffffffffffff8103611fe95760095460641115611f6357600980546001810182555f919091527f6e1540171b6c0c960b71a7020d9f60077f6af931a8bbf590da0223dacf75c7af01611f4c8482612cfe565b50600954611f5c906001906127d3565b9050611fe9565b600980548391600891611f78906001906127d3565b81548110611f8857611f886127e6565b905f5260205f2001604051611f9d91906128f0565b9081526020016040518091039020541015611c8a5760098054849190611fc5906001906127d3565b81548110611fd557611fd56127e6565b905f5260205f20019081611f4c9190612cfe565b5f81118015612039575081600860096120036001856127d3565b81548110612013576120136127e6565b905f5260205f200160405161202891906128f0565b908152602001604051809103902054105b15611c8a575f600961204c6001846127d3565b8154811061205c5761205c6127e6565b905f5260205f2001805461206f90612813565b80601f016020809104026020016040519081016040528092919081815260200182805461209b90612813565b80156120e65780601f106120bd576101008083540402835291602001916120e6565b820191905f5260205f20905b8154815290600101906020018083116120c957829003601f168201915b5050505050905060098281548110612100576121006127e6565b905f5260205f2001600960018461211791906127d3565b81548110612127576121276127e6565b905f5260205f2001908161213b9190612aa8565b508060098381548110612150576121506127e6565b905f5260205f200190816121649190612cfe565b508161216f81612cca565b92505050611fe9565b5080545f8255905f5260205f2090810190611979919061221e565b50805461219f90612813565b5f825580601f106121ae575050565b601f0160209004905f5260205f2090810190611979919061223a565b828054828255905f5260205f2090810192821561220e579160200282015b8281111561220e57825182906121fe9082612cfe565b50916020019190600101906121e8565b5061221a92915061221e565b5090565b8082111561221a575f6122318282612193565b5060010161221e565b5b8082111561221a575f815560010161223b565b5f5f83601f84011261225e575f5ffd5b50813567ffffffffffffffff811115612275575f5ffd5b6020830191508360208285010111156106ee575f5ffd5b5f5f6020838503121561229d575f5ffd5b823567ffffffffffffffff8111156122b3575f5ffd5b6122bf8582860161224e565b90969095509350505050565b5f5f604083850312156122dc575f5ffd5b50508035926020909101359150565b5f8151808452602084019350602083015f5b8281101561233157815173ffffffffffffffffffffffffffffffffffffffff168652602095860195909101906001016122fd565b5093949350505050565b5f8151808452602084019350602083015f5b8281101561233157815186526020958601959091019060010161234d565b604081525f61237d60408301856122eb565b828103602084015261238f818561233b565b95945050505050565b5f602082840312156123a8575f5ffd5b5035919050565b5f82825180855260208501945060208160051b830101602085015f5b83811015612459577fffffffffffffffffffffffffffffffffffffffffffffffffffffffffffffffe0858403018852815180518085528060208301602087015e5f6020828701015260207fffffffffffffffffffffffffffffffffffffffffffffffffffffffffffffffe0601f830116860101945050506020820191506020880197506001810190506123cb565b50909695505050505050565b602081525f61247760208301846123af565b9392505050565b604081525f61237d60408301856123af565b5f5f5f604084860312156124a2575f5ffd5b83359250602084013567ffffffffffffffff8111156124bf575f5ffd5b6124cb8682870161224e565b9497909650939450505050565b5f5f83601f8401126124e8575f5ffd5b50813567ffffffffffffffff8111156124ff575f5ffd5b6020830191508360208260051b85010111156106ee575f5ffd5b5f5f6020838503121561252a575f5ffd5b823567ffffffffffffffff811115612540575f5ffd5b6122bf858286016124d8565b602081525f61247760208301846122eb565b7f4e487b71000000000000000000000000000000000000000000000000000000005f52604160045260245ffd5b604051601f82017fffffffffffffffffffffffffffffffffffffffffffffffffffffffffffffffe016810167ffffffffffffffff811182821017156125d2576125d261255e565b604052919050565b5f5f604083850312156125eb575f5ffd5b82359150602083013567ffffffffffffffff811115612608575f5ffd5b8301601f81018513612618575f5ffd5b803567ffffffffffffffff8111156126325761263261255e565b8060051b6126426020820161258b565b9182526020818401810192908101908884111561265d575f5ffd5b6020850192505b8383101561271d57823567ffffffffffffffff811115612682575f5ffd5b8501603f81018a13612692575f5ffd5b602081013567ffffffffffffffff8111156126af576126af61255e565b6126e060207fffffffffffffffffffffffffffffffffffffffffffffffffffffffffffffffe0601f8401160161258b565b8181526040838301018c10156126f4575f5ffd5b816040840160208301375f60208383010152808552505050602082019150602083019250612664565b80955050505050509250929050565b803573ffffffffffffffffffffffffffffffffffffffff8116811461274f575f5ffd5b919050565b5f60208284031215612764575f5ffd5b6124778261272c565b5f5f6040838503121561277e575f5ffd5b8235915061278e6020840161272c565b90509250929050565b818382375f9101908152919050565b7f4e487b71000000000000000000000000000000000000000000000000000000005f52601160045260245ffd5b81810381811115610489576104896127a6565b7f4e487b71000000000000000000000000000000000000000000000000000000005f52603260045260245ffd5b600181811c9082168061282757607f821691505b60208210810361285e577f4e487b71000000000000000000000000000000000000000000000000000000005f52602260045260245ffd5b50919050565b5f815461287081612813565b60018216801561288757600181146128ba576128e7565b7fffffffffffffffffffffffffffffffffffffffffffffffffffffffffffffff00831686528115158202860193506128e7565b845f5260205f205f5b838110156128df578154888201526001909101906020016128c3565b505081860193505b50505092915050565b5f6124778284612864565b601f821115611c8a57805f5260205f20601f840160051c810160208510156129205750805b601f840160051c820191505b8181101561293f575f815560010161292c565b5050505050565b67ffffffffffffffff83111561295e5761295e61255e565b6129728361296c8354612813565b836128fb565b5f601f8411600181146129c2575f851561298c5750838201355b7fffffffffffffffffffffffffffffffffffffffffffffffffffffffffffffffff600387901b1c1916600186901b17835561293f565b5f838152602081207fffffffffffffffffffffffffffffffffffffffffffffffffffffffffffffffe08716915b82811015612a0f57868501358255602094850194600190920191016129ef565b5086821015612a4a577fffffffffffffffffffffffffffffffffffffffffffffffffffffffffffffffff60f88860031b161c19848701351681555b505060018560011b0183555050505050565b60208152816020820152818360408301375f818301604090810191909152601f9092017fffffffffffffffffffffffffffffffffffffffffffffffffffffffffffffffe0160101919050565b818103612ab3575050565b612abd8254612813565b67ffffffffffffffff811115612ad557612ad561255e565b612ae981612ae38454612813565b846128fb565b5f601f821160018114612b3c575f8315612b035750848201545b600184901b7fffffffffffffffffffffffffffffffffffffffffffffffffffffffffffffffff600386901b1c198216175b85555061293f565b5f85815260208082208683529082207fffffffffffffffffffffffffffffffffffffffffffffffffffffffffffffffe08616925b83811015612b905782860154825560019586019590910190602001612b70565b5085831015612bcc57818501547fffffffffffffffffffffffffffffffffffffffffffffffffffffffffffffffff600388901b60f8161c191681555b5050505050600190811b01905550565b7f4e487b71000000000000000000000000000000000000000000000000000000005f52603160045260245ffd5b5f5f83357fffffffffffffffffffffffffffffffffffffffffffffffffffffffffffffffe1843603018112612c3c575f5ffd5b83018035915067ffffffffffffffff821115612c56575f5ffd5b6020019150368190038213156106ee575f5ffd5b5f7fffffffffffffffffffffffffffffffffffffffffffffffffffffffffffffffff8203612c9a57612c9a6127a6565b5060010190565b5f82518060208501845e5f920191825250919050565b80820180821115610489576104896127a6565b5f81612cd857612cd86127a6565b507fffffffffffffffffffffffffffffffffffffffffffffffffffffffffffffffff0190565b815167ffffffffffffffff811115612d1857612d1861255e565b612d2681612ae38454612813565b6020601f821160018114612d75575f8315612b03575081850151600184901b7fffffffffffffffffffffffffffffffffffffffffffffffffffffffffffffffff600386901b1c19821617612b34565b5f848152602081207fffffffffffffffffffffffffffffffffffffffffffffffffffffffffffffffe08516915b82811015612dc25787850151825560209485019460019092019101612da2565b5084821015612dfe57868401517fffffffffffffffffffffffffffffffffffffffffffffffffffffffffffffffff600387901b60f8161c191681555b50505050600190811b0190555056fea26469706673582212201100fa5ca63d7b99d53a9b04819d8425e886ab9158fe4ebeafcc5be055f5061464736f6c634300081d0033","linkReferences":{}},"methodIdentifiers":{"addBootnodes(string[])":"d90d8573","bootnodeManager()":"a49e07d6","clearBootnodes()":"4179a759","currentRound()":"8a19c8bc","currentStage()":"5bf5d54c","getBootnodes()":"6370ae4f","getBootnodesCount()":"48495bdb","getEoa(string[])":"96bac35a","getPeerId(address[])":"b894a469","getPeerVoteCount(uint256,string)":"4f4026c3","getRoundWinners(uint256)":"2e881471","getTotalWins(string)":"099c4002","getVoterVoteCount(address)":"ccf82bb1","getVoterVotes(uint256,address)":"edcb5468","owner()":"8da5cb5b","registerPeer(string)":"33e7fb45","removeBootnode(uint256)":"4f52ca36","renounceOwnership()":"715018a6","setBootnodeManager(address)":"ef87ed23","setStageCount(uint256)":"c1b664de","setStageUpdater(address)":"d542dda8","stageCount()":"f33261ac","stageUpdater()":"f39dd4e5","submitWinners(uint256,string[])":"c7ee32a7","transferOwnership(address)":"f2fde38b","uniqueVotedPeers()":"42d2c6a0","uniqueVoters()":"b0c77404","updateStageAndRound()":"e28b0586","voterLeaderboard(uint256,uint256)":"18a6fd88","winnerLeaderboard(uint256,uint256)":"2f4be652"},"id":20}